{
  "_format": "hh-sol-artifact-1",
  "contractName": "EwariUpgradeableFull",
  "sourceName": "contracts/EwariUpgradeableFull.sol",
  "abi": [
    {
      "inputs": [],
      "name": "AccessControlBadConfirmation",
      "type": "error"
    },
    {
      "inputs": [
        {
          "internalType": "address",
          "name": "account",
          "type": "address"
        },
        {
          "internalType": "bytes32",
          "name": "neededRole",
          "type": "bytes32"
        }
      ],
      "name": "AccessControlUnauthorizedAccount",
      "type": "error"
    },
    {
      "inputs": [
        {
          "internalType": "address",
          "name": "target",
          "type": "address"
        }
      ],
      "name": "AddressEmptyCode",
      "type": "error"
    },
    {
      "inputs": [],
      "name": "ECDSAInvalidSignature",
      "type": "error"
    },
    {
      "inputs": [
        {
          "internalType": "uint256",
          "name": "length",
          "type": "uint256"
        }
      ],
      "name": "ECDSAInvalidSignatureLength",
      "type": "error"
    },
    {
      "inputs": [
        {
          "internalType": "bytes32",
          "name": "s",
          "type": "bytes32"
        }
      ],
      "name": "ECDSAInvalidSignatureS",
      "type": "error"
    },
    {
      "inputs": [
        {
          "internalType": "address",
          "name": "implementation",
          "type": "address"
        }
      ],
      "name": "ERC1967InvalidImplementation",
      "type": "error"
    },
    {
      "inputs": [],
      "name": "ERC1967NonPayable",
      "type": "error"
    },
    {
      "inputs": [
        {
          "internalType": "address",
          "name": "spender",
          "type": "address"
        },
        {
          "internalType": "uint256",
          "name": "allowance",
          "type": "uint256"
        },
        {
          "internalType": "uint256",
          "name": "needed",
          "type": "uint256"
        }
      ],
      "name": "ERC20InsufficientAllowance",
      "type": "error"
    },
    {
      "inputs": [
        {
          "internalType": "address",
          "name": "sender",
          "type": "address"
        },
        {
          "internalType": "uint256",
          "name": "balance",
          "type": "uint256"
        },
        {
          "internalType": "uint256",
          "name": "needed",
          "type": "uint256"
        }
      ],
      "name": "ERC20InsufficientBalance",
      "type": "error"
    },
    {
      "inputs": [
        {
          "internalType": "address",
          "name": "approver",
          "type": "address"
        }
      ],
      "name": "ERC20InvalidApprover",
      "type": "error"
    },
    {
      "inputs": [
        {
          "internalType": "address",
          "name": "receiver",
          "type": "address"
        }
      ],
      "name": "ERC20InvalidReceiver",
      "type": "error"
    },
    {
      "inputs": [
        {
          "internalType": "address",
          "name": "sender",
          "type": "address"
        }
      ],
      "name": "ERC20InvalidSender",
      "type": "error"
    },
    {
      "inputs": [
        {
          "internalType": "address",
          "name": "spender",
          "type": "address"
        }
      ],
      "name": "ERC20InvalidSpender",
      "type": "error"
    },
    {
      "inputs": [
        {
          "internalType": "uint256",
          "name": "deadline",
          "type": "uint256"
        }
      ],
      "name": "ERC2612ExpiredSignature",
      "type": "error"
    },
    {
      "inputs": [
        {
          "internalType": "address",
          "name": "signer",
          "type": "address"
        },
        {
          "internalType": "address",
          "name": "owner",
          "type": "address"
        }
      ],
      "name": "ERC2612InvalidSigner",
      "type": "error"
    },
    {
      "inputs": [],
      "name": "EnforcedPause",
      "type": "error"
    },
    {
      "inputs": [],
      "name": "ExpectedPause",
      "type": "error"
    },
    {
      "inputs": [],
      "name": "FailedCall",
      "type": "error"
    },
    {
      "inputs": [
        {
          "internalType": "address",
          "name": "account",
          "type": "address"
        },
        {
          "internalType": "uint256",
          "name": "currentNonce",
          "type": "uint256"
        }
      ],
      "name": "InvalidAccountNonce",
      "type": "error"
    },
    {
      "inputs": [],
      "name": "InvalidInitialization",
      "type": "error"
    },
    {
      "inputs": [],
      "name": "NotInitializing",
      "type": "error"
    },
    {
      "inputs": [],
      "name": "ReentrancyGuardReentrantCall",
      "type": "error"
    },
    {
      "inputs": [
        {
          "internalType": "address",
          "name": "token",
          "type": "address"
        }
      ],
      "name": "SafeERC20FailedOperation",
      "type": "error"
    },
    {
      "inputs": [],
      "name": "UUPSUnauthorizedCallContext",
      "type": "error"
    },
    {
      "inputs": [
        {
          "internalType": "bytes32",
          "name": "slot",
          "type": "bytes32"
        }
      ],
      "name": "UUPSUnsupportedProxiableUUID",
      "type": "error"
    },
    {
      "anonymous": false,
      "inputs": [
        {
          "indexed": true,
          "internalType": "address",
          "name": "account",
          "type": "address"
        },
        {
          "indexed": false,
          "internalType": "bool",
          "name": "allowlisted",
          "type": "bool"
        }
      ],
      "name": "AddressAllowlistedUpdated",
      "type": "event"
    },
    {
      "anonymous": false,
      "inputs": [
        {
          "indexed": true,
          "internalType": "address",
          "name": "account",
          "type": "address"
        },
        {
          "indexed": false,
          "internalType": "bool",
          "name": "blocked",
          "type": "bool"
        }
      ],
      "name": "AddressBlockedUpdated",
      "type": "event"
    },
    {
      "anonymous": false,
      "inputs": [
        {
          "indexed": true,
          "internalType": "address",
          "name": "account",
          "type": "address"
        },
        {
          "indexed": false,
          "internalType": "bool",
          "name": "kycValidated",
          "type": "bool"
        }
      ],
      "name": "AddressKycUpdated",
      "type": "event"
    },
    {
      "anonymous": false,
      "inputs": [
        {
          "indexed": true,
          "internalType": "address",
          "name": "owner",
          "type": "address"
        },
        {
          "indexed": true,
          "internalType": "address",
          "name": "spender",
          "type": "address"
        },
        {
          "indexed": false,
          "internalType": "uint256",
          "name": "value",
          "type": "uint256"
        }
      ],
      "name": "Approval",
      "type": "event"
    },
    {
      "anonymous": false,
      "inputs": [
        {
          "indexed": true,
          "internalType": "address",
          "name": "operator",
          "type": "address"
        },
        {
          "indexed": true,
          "internalType": "address",
          "name": "burnedFrom",
          "type": "address"
        },
        {
          "indexed": false,
          "internalType": "uint256",
          "name": "burnedAmount",
          "type": "uint256"
        },
        {
          "indexed": false,
          "internalType": "uint256",
          "name": "count",
          "type": "uint256"
        },
        {
          "indexed": false,
          "internalType": "uint256",
          "name": "totalTransferred",
          "type": "uint256"
        }
      ],
      "name": "BatchBurnTransferExecuted",
      "type": "event"
    },
    {
      "anonymous": false,
      "inputs": [
        {
          "indexed": true,
          "internalType": "address",
          "name": "operator",
          "type": "address"
        },
        {
          "indexed": false,
          "internalType": "uint256",
          "name": "mintedAmount",
          "type": "uint256"
        },
        {
          "indexed": false,
          "internalType": "uint256",
          "name": "count",
          "type": "uint256"
        },
        {
          "indexed": false,
          "internalType": "uint256",
          "name": "totalTransferred",
          "type": "uint256"
        }
      ],
      "name": "BatchMintTransferExecuted",
      "type": "event"
    },
    {
      "anonymous": false,
      "inputs": [
        {
          "indexed": true,
          "internalType": "address",
          "name": "operator",
          "type": "address"
        },
        {
          "indexed": true,
          "internalType": "address",
          "name": "from",
          "type": "address"
        },
        {
          "indexed": false,
          "internalType": "uint256",
          "name": "count",
          "type": "uint256"
        },
        {
          "indexed": false,
          "internalType": "uint256",
          "name": "totalAmount",
          "type": "uint256"
        }
      ],
      "name": "BatchTransferExecuted",
      "type": "event"
    },
    {
      "anonymous": false,
      "inputs": [
        {
          "indexed": false,
          "internalType": "bool",
          "name": "complianceEnabled",
          "type": "bool"
        },
        {
          "indexed": false,
          "internalType": "bool",
          "name": "transfersRestricted",
          "type": "bool"
        },
        {
          "indexed": false,
          "internalType": "bool",
          "name": "kycRequired",
          "type": "bool"
        }
      ],
      "name": "ComplianceFlagsUpdated",
      "type": "event"
    },
    {
      "anonymous": false,
      "inputs": [
        {
          "indexed": true,
          "internalType": "address",
          "name": "subscriber",
          "type": "address"
        },
        {
          "indexed": true,
          "internalType": "address",
          "name": "commissionReceiver",
          "type": "address"
        },
        {
          "indexed": false,
          "internalType": "uint256",
          "name": "subscriptionCost",
          "type": "uint256"
        },
        {
          "indexed": false,
          "internalType": "uint256",
          "name": "expiryDate",
          "type": "uint256"
        }
      ],
      "name": "DirectSubscriptionPurchased",
      "type": "event"
    },
    {
      "anonymous": false,
      "inputs": [],
      "name": "EIP712DomainChanged",
      "type": "event"
    },
    {
      "anonymous": false,
      "inputs": [
        {
          "indexed": false,
          "internalType": "uint64",
          "name": "version",
          "type": "uint64"
        }
      ],
      "name": "Initialized",
      "type": "event"
    },
    {
      "anonymous": false,
      "inputs": [
        {
          "indexed": false,
          "internalType": "uint256",
          "name": "previousMaxSupply",
          "type": "uint256"
        },
        {
          "indexed": false,
          "internalType": "uint256",
          "name": "newMaxSupply",
          "type": "uint256"
        }
      ],
      "name": "MaxSupplyUpdated",
      "type": "event"
    },
    {
      "anonymous": false,
      "inputs": [
        {
          "indexed": true,
          "internalType": "address",
          "name": "operator",
          "type": "address"
        },
        {
          "indexed": true,
          "internalType": "address",
          "name": "from",
          "type": "address"
        },
        {
          "indexed": true,
          "internalType": "address",
          "name": "to",
          "type": "address"
        },
        {
          "indexed": false,
          "internalType": "uint256",
          "name": "amount",
          "type": "uint256"
        }
      ],
      "name": "MetaTransferExecuted",
      "type": "event"
    },
    {
      "anonymous": false,
      "inputs": [
        {
          "indexed": false,
          "internalType": "address",
          "name": "account",
          "type": "address"
        }
      ],
      "name": "Paused",
      "type": "event"
    },
    {
      "anonymous": false,
      "inputs": [
        {
          "indexed": true,
          "internalType": "address",
          "name": "previousRelayer",
          "type": "address"
        },
        {
          "indexed": true,
          "internalType": "address",
          "name": "newRelayer",
          "type": "address"
        }
      ],
      "name": "RelayerUpdated",
      "type": "event"
    },
    {
      "anonymous": false,
      "inputs": [
        {
          "indexed": true,
          "internalType": "address",
          "name": "token",
          "type": "address"
        },
        {
          "indexed": true,
          "internalType": "address",
          "name": "to",
          "type": "address"
        },
        {
          "indexed": false,
          "internalType": "uint256",
          "name": "amount",
          "type": "uint256"
        }
      ],
      "name": "RescueERC20",
      "type": "event"
    },
    {
      "anonymous": false,
      "inputs": [
        {
          "indexed": true,
          "internalType": "address",
          "name": "to",
          "type": "address"
        },
        {
          "indexed": false,
          "internalType": "uint256",
          "name": "amount",
          "type": "uint256"
        }
      ],
      "name": "RescueNative",
      "type": "event"
    },
    {
      "anonymous": false,
      "inputs": [
        {
          "indexed": true,
          "internalType": "bytes32",
          "name": "role",
          "type": "bytes32"
        },
        {
          "indexed": true,
          "internalType": "bytes32",
          "name": "previousAdminRole",
          "type": "bytes32"
        },
        {
          "indexed": true,
          "internalType": "bytes32",
          "name": "newAdminRole",
          "type": "bytes32"
        }
      ],
      "name": "RoleAdminChanged",
      "type": "event"
    },
    {
      "anonymous": false,
      "inputs": [
        {
          "indexed": true,
          "internalType": "bytes32",
          "name": "role",
          "type": "bytes32"
        },
        {
          "indexed": true,
          "internalType": "address",
          "name": "account",
          "type": "address"
        },
        {
          "indexed": true,
          "internalType": "address",
          "name": "sender",
          "type": "address"
        }
      ],
      "name": "RoleGranted",
      "type": "event"
    },
    {
      "anonymous": false,
      "inputs": [
        {
          "indexed": true,
          "internalType": "bytes32",
          "name": "role",
          "type": "bytes32"
        },
        {
          "indexed": true,
          "internalType": "address",
          "name": "account",
          "type": "address"
        },
        {
          "indexed": true,
          "internalType": "address",
          "name": "sender",
          "type": "address"
        }
      ],
      "name": "RoleRevoked",
      "type": "event"
    },
    {
      "anonymous": false,
      "inputs": [
        {
          "indexed": true,
          "internalType": "address",
          "name": "user",
          "type": "address"
        },
        {
          "indexed": true,
          "internalType": "uint256",
          "name": "planId",
          "type": "uint256"
        },
        {
          "indexed": false,
          "internalType": "uint256",
          "name": "price",
          "type": "uint256"
        },
        {
          "indexed": false,
          "internalType": "uint256",
          "name": "expiryDate",
          "type": "uint256"
        }
      ],
      "name": "SubscriptionPlanPurchased",
      "type": "event"
    },
    {
      "anonymous": false,
      "inputs": [
        {
          "indexed": true,
          "internalType": "address",
          "name": "user",
          "type": "address"
        },
        {
          "indexed": false,
          "internalType": "uint256",
          "name": "subscriptionCost",
          "type": "uint256"
        },
        {
          "indexed": false,
          "internalType": "uint256",
          "name": "expiryDate",
          "type": "uint256"
        }
      ],
      "name": "SubscriptionPurchased",
      "type": "event"
    },
    {
      "anonymous": false,
      "inputs": [
        {
          "indexed": true,
          "internalType": "address",
          "name": "account",
          "type": "address"
        },
        {
          "indexed": true,
          "internalType": "address",
          "name": "grantedBy",
          "type": "address"
        }
      ],
      "name": "SuperAdminGranted",
      "type": "event"
    },
    {
      "anonymous": false,
      "inputs": [
        {
          "indexed": true,
          "internalType": "address",
          "name": "account",
          "type": "address"
        },
        {
          "indexed": true,
          "internalType": "address",
          "name": "revokedBy",
          "type": "address"
        }
      ],
      "name": "SuperAdminRevoked",
      "type": "event"
    },
    {
      "anonymous": false,
      "inputs": [
        {
          "indexed": true,
          "internalType": "address",
          "name": "from",
          "type": "address"
        },
        {
          "indexed": true,
          "internalType": "address",
          "name": "to",
          "type": "address"
        },
        {
          "indexed": false,
          "internalType": "uint256",
          "name": "value",
          "type": "uint256"
        }
      ],
      "name": "Transfer",
      "type": "event"
    },
    {
      "anonymous": false,
      "inputs": [
        {
          "indexed": true,
          "internalType": "address",
          "name": "previousTreasury",
          "type": "address"
        },
        {
          "indexed": true,
          "internalType": "address",
          "name": "newTreasury",
          "type": "address"
        }
      ],
      "name": "TreasuryUpdated",
      "type": "event"
    },
    {
      "anonymous": false,
      "inputs": [
        {
          "indexed": true,
          "internalType": "address",
          "name": "previousTrustedRelayer",
          "type": "address"
        },
        {
          "indexed": true,
          "internalType": "address",
          "name": "newTrustedRelayer",
          "type": "address"
        }
      ],
      "name": "TrustedRelayerUpdated",
      "type": "event"
    },
    {
      "anonymous": false,
      "inputs": [
        {
          "indexed": false,
          "internalType": "address",
          "name": "account",
          "type": "address"
        }
      ],
      "name": "Unpaused",
      "type": "event"
    },
    {
      "anonymous": false,
      "inputs": [
        {
          "indexed": true,
          "internalType": "address",
          "name": "implementation",
          "type": "address"
        }
      ],
      "name": "Upgraded",
      "type": "event"
    },
    {
      "inputs": [],
      "name": "ASYNC_ROLE",
      "outputs": [
        {
          "internalType": "bytes32",
          "name": "",
          "type": "bytes32"
        }
      ],
      "stateMutability": "view",
      "type": "function"
    },
    {
      "inputs": [],
      "name": "BATCH_OPERATOR_ROLE",
      "outputs": [
        {
          "internalType": "bytes32",
          "name": "",
          "type": "bytes32"
        }
      ],
      "stateMutability": "view",
      "type": "function"
    },
    {
      "inputs": [],
      "name": "BURNER_ROLE",
      "outputs": [
        {
          "internalType": "bytes32",
          "name": "",
          "type": "bytes32"
        }
      ],
      "stateMutability": "view",
      "type": "function"
    },
    {
      "inputs": [],
      "name": "COMPLIANCE_ROLE",
      "outputs": [
        {
          "internalType": "bytes32",
          "name": "",
          "type": "bytes32"
        }
      ],
      "stateMutability": "view",
      "type": "function"
    },
    {
      "inputs": [],
      "name": "DEFAULT_ADMIN_ROLE",
      "outputs": [
        {
          "internalType": "bytes32",
          "name": "",
          "type": "bytes32"
        }
      ],
      "stateMutability": "view",
      "type": "function"
    },
    {
      "inputs": [],
      "name": "DOMAIN_SEPARATOR",
      "outputs": [
        {
          "internalType": "bytes32",
          "name": "",
          "type": "bytes32"
        }
      ],
      "stateMutability": "view",
      "type": "function"
    },
    {
      "inputs": [],
      "name": "MINTER_ROLE",
      "outputs": [
        {
          "internalType": "bytes32",
          "name": "",
          "type": "bytes32"
        }
      ],
      "stateMutability": "view",
      "type": "function"
    },
    {
      "inputs": [],
      "name": "PAUSER_ROLE",
      "outputs": [
        {
          "internalType": "bytes32",
          "name": "",
          "type": "bytes32"
        }
      ],
      "stateMutability": "view",
      "type": "function"
    },
    {
      "inputs": [],
      "name": "RELAYER_ROLE",
      "outputs": [
        {
          "internalType": "bytes32",
          "name": "",
          "type": "bytes32"
        }
      ],
      "stateMutability": "view",
      "type": "function"
    },
    {
      "inputs": [],
      "name": "SUBSCRIBER_ROLE",
      "outputs": [
        {
          "internalType": "bytes32",
          "name": "",
          "type": "bytes32"
        }
      ],
      "stateMutability": "view",
      "type": "function"
    },
    {
      "inputs": [],
      "name": "SUBSCRIPTION_MANAGER_ROLE",
      "outputs": [
        {
          "internalType": "bytes32",
          "name": "",
          "type": "bytes32"
        }
      ],
      "stateMutability": "view",
      "type": "function"
    },
    {
      "inputs": [],
      "name": "TRANSFERFROM_ROLE",
      "outputs": [
        {
          "internalType": "bytes32",
          "name": "",
          "type": "bytes32"
        }
      ],
      "stateMutability": "view",
      "type": "function"
    },
    {
      "inputs": [],
      "name": "TRANSFER_ROLE",
      "outputs": [
        {
          "internalType": "bytes32",
          "name": "",
          "type": "bytes32"
        }
      ],
      "stateMutability": "view",
      "type": "function"
    },
    {
      "inputs": [],
      "name": "TREASURY_ROLE",
      "outputs": [
        {
          "internalType": "bytes32",
          "name": "",
          "type": "bytes32"
        }
      ],
      "stateMutability": "view",
      "type": "function"
    },
    {
      "inputs": [],
      "name": "UPGRADER_ROLE",
      "outputs": [
        {
          "internalType": "bytes32",
          "name": "",
          "type": "bytes32"
        }
      ],
      "stateMutability": "view",
      "type": "function"
    },
    {
      "inputs": [],
      "name": "UPGRADE_INTERFACE_VERSION",
      "outputs": [
        {
          "internalType": "string",
          "name": "",
          "type": "string"
        }
      ],
      "stateMutability": "view",
      "type": "function"
    },
    {
      "inputs": [
        {
          "internalType": "address",
          "name": "account",
          "type": "address"
        },
        {
          "internalType": "uint256",
          "name": "amount",
          "type": "uint256"
        }
      ],
      "name": "adminBurn",
      "outputs": [],
      "stateMutability": "nonpayable",
      "type": "function"
    },
    {
      "inputs": [
        {
          "internalType": "address",
          "name": "owner",
          "type": "address"
        },
        {
          "internalType": "address",
          "name": "spender",
          "type": "address"
        }
      ],
      "name": "allowance",
      "outputs": [
        {
          "internalType": "uint256",
          "name": "",
          "type": "uint256"
        }
      ],
      "stateMutability": "view",
      "type": "function"
    },
    {
      "inputs": [
        {
          "internalType": "address",
          "name": "",
          "type": "address"
        }
      ],
      "name": "allowlisted",
      "outputs": [
        {
          "internalType": "bool",
          "name": "",
          "type": "bool"
        }
      ],
      "stateMutability": "view",
      "type": "function"
    },
    {
      "inputs": [
        {
          "internalType": "address",
          "name": "spender",
          "type": "address"
        },
        {
          "internalType": "uint256",
          "name": "value",
          "type": "uint256"
        }
      ],
      "name": "approve",
      "outputs": [
        {
          "internalType": "bool",
          "name": "",
          "type": "bool"
        }
      ],
      "stateMutability": "nonpayable",
      "type": "function"
    },
    {
      "inputs": [
        {
          "internalType": "address",
          "name": "account",
          "type": "address"
        }
      ],
      "name": "balanceOf",
      "outputs": [
        {
          "internalType": "uint256",
          "name": "",
          "type": "uint256"
        }
      ],
      "stateMutability": "view",
      "type": "function"
    },
    {
      "inputs": [
        {
          "internalType": "address[]",
          "name": "accounts",
          "type": "address[]"
        },
        {
          "internalType": "bool",
          "name": "value",
          "type": "bool"
        }
      ],
      "name": "batchSetAllowlisted",
      "outputs": [],
      "stateMutability": "nonpayable",
      "type": "function"
    },
    {
      "inputs": [
        {
          "internalType": "address[]",
          "name": "accounts",
          "type": "address[]"
        },
        {
          "internalType": "bool",
          "name": "value",
          "type": "bool"
        }
      ],
      "name": "batchSetBlocked",
      "outputs": [],
      "stateMutability": "nonpayable",
      "type": "function"
    },
    {
      "inputs": [
        {
          "internalType": "address[]",
          "name": "accounts",
          "type": "address[]"
        },
        {
          "internalType": "bool",
          "name": "value",
          "type": "bool"
        }
      ],
      "name": "batchSetKycValidated",
      "outputs": [],
      "stateMutability": "nonpayable",
      "type": "function"
    },
    {
      "inputs": [
        {
          "internalType": "address",
          "name": "",
          "type": "address"
        }
      ],
      "name": "blocked",
      "outputs": [
        {
          "internalType": "bool",
          "name": "",
          "type": "bool"
        }
      ],
      "stateMutability": "view",
      "type": "function"
    },
    {
      "inputs": [
        {
          "internalType": "uint256",
          "name": "amount",
          "type": "uint256"
        }
      ],
      "name": "burn",
      "outputs": [],
      "stateMutability": "nonpayable",
      "type": "function"
    },
    {
      "inputs": [
        {
          "internalType": "address",
          "name": "account",
          "type": "address"
        },
        {
          "internalType": "uint256",
          "name": "amount",
          "type": "uint256"
        }
      ],
      "name": "burnFrom",
      "outputs": [],
      "stateMutability": "nonpayable",
      "type": "function"
    },
    {
      "inputs": [
        {
          "internalType": "address",
          "name": "account",
          "type": "address"
        },
        {
          "internalType": "uint256",
          "name": "amount",
          "type": "uint256"
        }
      ],
      "name": "burnFromAllowance",
      "outputs": [],
      "stateMutability": "nonpayable",
      "type": "function"
    },
    {
      "inputs": [],
      "name": "complianceEnabled",
      "outputs": [
        {
          "internalType": "bool",
          "name": "",
          "type": "bool"
        }
      ],
      "stateMutability": "view",
      "type": "function"
    },
    {
      "inputs": [],
      "name": "contractVersion",
      "outputs": [
        {
          "internalType": "string",
          "name": "",
          "type": "string"
        }
      ],
      "stateMutability": "pure",
      "type": "function"
    },
    {
      "inputs": [],
      "name": "decimals",
      "outputs": [
        {
          "internalType": "uint8",
          "name": "",
          "type": "uint8"
        }
      ],
      "stateMutability": "pure",
      "type": "function"
    },
    {
      "inputs": [],
      "name": "eip712Domain",
      "outputs": [
        {
          "internalType": "bytes1",
          "name": "fields",
          "type": "bytes1"
        },
        {
          "internalType": "string",
          "name": "name",
          "type": "string"
        },
        {
          "internalType": "string",
          "name": "version",
          "type": "string"
        },
        {
          "internalType": "uint256",
          "name": "chainId",
          "type": "uint256"
        },
        {
          "internalType": "address",
          "name": "verifyingContract",
          "type": "address"
        },
        {
          "internalType": "bytes32",
          "name": "salt",
          "type": "bytes32"
        },
        {
          "internalType": "uint256[]",
          "name": "extensions",
          "type": "uint256[]"
        }
      ],
      "stateMutability": "view",
      "type": "function"
    },
    {
      "inputs": [
        {
          "internalType": "address",
          "name": "subscriber",
          "type": "address"
        }
      ],
      "name": "getRemainingDays",
      "outputs": [
        {
          "internalType": "uint256",
          "name": "",
          "type": "uint256"
        }
      ],
      "stateMutability": "view",
      "type": "function"
    },
    {
      "inputs": [
        {
          "internalType": "bytes32",
          "name": "role",
          "type": "bytes32"
        }
      ],
      "name": "getRoleAdmin",
      "outputs": [
        {
          "internalType": "bytes32",
          "name": "",
          "type": "bytes32"
        }
      ],
      "stateMutability": "view",
      "type": "function"
    },
    {
      "inputs": [
        {
          "internalType": "address",
          "name": "subscriber",
          "type": "address"
        }
      ],
      "name": "getSubscriptionExpiry",
      "outputs": [
        {
          "internalType": "uint256",
          "name": "",
          "type": "uint256"
        }
      ],
      "stateMutability": "view",
      "type": "function"
    },
    {
      "inputs": [
        {
          "internalType": "bytes32",
          "name": "role",
          "type": "bytes32"
        },
        {
          "internalType": "address",
          "name": "account",
          "type": "address"
        }
      ],
      "name": "grantRole",
      "outputs": [],
      "stateMutability": "nonpayable",
      "type": "function"
    },
    {
      "inputs": [
        {
          "internalType": "address",
          "name": "account",
          "type": "address"
        }
      ],
      "name": "grantSuperAdmin",
      "outputs": [],
      "stateMutability": "nonpayable",
      "type": "function"
    },
    {
      "inputs": [
        {
          "internalType": "bytes32",
          "name": "role",
          "type": "bytes32"
        },
        {
          "internalType": "address",
          "name": "account",
          "type": "address"
        }
      ],
      "name": "hasRole",
      "outputs": [
        {
          "internalType": "bool",
          "name": "",
          "type": "bool"
        }
      ],
      "stateMutability": "view",
      "type": "function"
    },
    {
      "inputs": [
        {
          "internalType": "string",
          "name": "name_",
          "type": "string"
        },
        {
          "internalType": "string",
          "name": "symbol_",
          "type": "string"
        },
        {
          "internalType": "address",
          "name": "initialAdmin_",
          "type": "address"
        },
        {
          "internalType": "address",
          "name": "initialTreasury_",
          "type": "address"
        },
        {
          "internalType": "address",
          "name": "initialRelayer_",
          "type": "address"
        },
        {
          "internalType": "uint256",
          "name": "initialSupply_",
          "type": "uint256"
        },
        {
          "internalType": "uint256",
          "name": "maxSupply_",
          "type": "uint256"
        }
      ],
      "name": "initialize",
      "outputs": [],
      "stateMutability": "nonpayable",
      "type": "function"
    },
    {
      "inputs": [
        {
          "internalType": "address",
          "name": "subscriber",
          "type": "address"
        }
      ],
      "name": "isActiveSubscriber",
      "outputs": [
        {
          "internalType": "bool",
          "name": "",
          "type": "bool"
        }
      ],
      "stateMutability": "view",
      "type": "function"
    },
    {
      "inputs": [
        {
          "internalType": "address",
          "name": "account",
          "type": "address"
        }
      ],
      "name": "isRelayer",
      "outputs": [
        {
          "internalType": "bool",
          "name": "",
          "type": "bool"
        }
      ],
      "stateMutability": "view",
      "type": "function"
    },
    {
      "inputs": [],
      "name": "kycRequired",
      "outputs": [
        {
          "internalType": "bool",
          "name": "",
          "type": "bool"
        }
      ],
      "stateMutability": "view",
      "type": "function"
    },
    {
      "inputs": [
        {
          "internalType": "address",
          "name": "",
          "type": "address"
        }
      ],
      "name": "kycValidated",
      "outputs": [
        {
          "internalType": "bool",
          "name": "",
          "type": "bool"
        }
      ],
      "stateMutability": "view",
      "type": "function"
    },
    {
      "inputs": [],
      "name": "maxSupply",
      "outputs": [
        {
          "internalType": "uint256",
          "name": "",
          "type": "uint256"
        }
      ],
      "stateMutability": "view",
      "type": "function"
    },
    {
      "inputs": [
        {
          "internalType": "address",
          "name": "from",
          "type": "address"
        },
        {
          "internalType": "address",
          "name": "to",
          "type": "address"
        },
        {
          "internalType": "uint256",
          "name": "amount",
          "type": "uint256"
        }
      ],
      "name": "metaTransfer",
      "outputs": [
        {
          "internalType": "bool",
          "name": "",
          "type": "bool"
        }
      ],
      "stateMutability": "nonpayable",
      "type": "function"
    },
    {
      "inputs": [
        {
          "internalType": "uint256",
          "name": "amount",
          "type": "uint256"
        }
      ],
      "name": "mint",
      "outputs": [],
      "stateMutability": "nonpayable",
      "type": "function"
    },
    {
      "inputs": [
        {
          "internalType": "address",
          "name": "to",
          "type": "address"
        },
        {
          "internalType": "uint256",
          "name": "amount",
          "type": "uint256"
        }
      ],
      "name": "mintFrom",
      "outputs": [],
      "stateMutability": "nonpayable",
      "type": "function"
    },
    {
      "inputs": [],
      "name": "name",
      "outputs": [
        {
          "internalType": "string",
          "name": "",
          "type": "string"
        }
      ],
      "stateMutability": "view",
      "type": "function"
    },
    {
      "inputs": [
        {
          "internalType": "address",
          "name": "owner",
          "type": "address"
        }
      ],
      "name": "nonces",
      "outputs": [
        {
          "internalType": "uint256",
          "name": "",
          "type": "uint256"
        }
      ],
      "stateMutability": "view",
      "type": "function"
    },
    {
      "inputs": [],
      "name": "pause",
      "outputs": [],
      "stateMutability": "nonpayable",
      "type": "function"
    },
    {
      "inputs": [],
      "name": "paused",
      "outputs": [
        {
          "internalType": "bool",
          "name": "",
          "type": "bool"
        }
      ],
      "stateMutability": "view",
      "type": "function"
    },
    {
      "inputs": [
        {
          "internalType": "address",
          "name": "owner",
          "type": "address"
        },
        {
          "internalType": "address",
          "name": "spender",
          "type": "address"
        },
        {
          "internalType": "uint256",
          "name": "value",
          "type": "uint256"
        },
        {
          "internalType": "uint256",
          "name": "deadline",
          "type": "uint256"
        },
        {
          "internalType": "uint8",
          "name": "v",
          "type": "uint8"
        },
        {
          "internalType": "bytes32",
          "name": "r",
          "type": "bytes32"
        },
        {
          "internalType": "bytes32",
          "name": "s",
          "type": "bytes32"
        }
      ],
      "name": "permit",
      "outputs": [],
      "stateMutability": "nonpayable",
      "type": "function"
    },
    {
      "inputs": [],
      "name": "proxiableUUID",
      "outputs": [
        {
          "internalType": "bytes32",
          "name": "",
          "type": "bytes32"
        }
      ],
      "stateMutability": "view",
      "type": "function"
    },
    {
      "inputs": [],
      "name": "relayer",
      "outputs": [
        {
          "internalType": "address",
          "name": "",
          "type": "address"
        }
      ],
      "stateMutability": "view",
      "type": "function"
    },
    {
      "inputs": [
        {
          "internalType": "bytes32",
          "name": "role",
          "type": "bytes32"
        },
        {
          "internalType": "address",
          "name": "callerConfirmation",
          "type": "address"
        }
      ],
      "name": "renounceRole",
      "outputs": [],
      "stateMutability": "nonpayable",
      "type": "function"
    },
    {
      "inputs": [
        {
          "internalType": "address",
          "name": "token",
          "type": "address"
        },
        {
          "internalType": "address",
          "name": "to",
          "type": "address"
        },
        {
          "internalType": "uint256",
          "name": "amount",
          "type": "uint256"
        }
      ],
      "name": "rescueERC20",
      "outputs": [],
      "stateMutability": "nonpayable",
      "type": "function"
    },
    {
      "inputs": [
        {
          "internalType": "address payable",
          "name": "to",
          "type": "address"
        },
        {
          "internalType": "uint256",
          "name": "amount",
          "type": "uint256"
        }
      ],
      "name": "rescueNative",
      "outputs": [],
      "stateMutability": "nonpayable",
      "type": "function"
    },
    {
      "inputs": [
        {
          "internalType": "bytes32",
          "name": "role",
          "type": "bytes32"
        },
        {
          "internalType": "address",
          "name": "account",
          "type": "address"
        }
      ],
      "name": "revokeRole",
      "outputs": [],
      "stateMutability": "nonpayable",
      "type": "function"
    },
    {
      "inputs": [
        {
          "internalType": "address",
          "name": "account",
          "type": "address"
        }
      ],
      "name": "revokeSuperAdmin",
      "outputs": [],
      "stateMutability": "nonpayable",
      "type": "function"
    },
    {
      "inputs": [
        {
          "internalType": "address",
          "name": "account",
          "type": "address"
        },
        {
          "internalType": "bool",
          "name": "value",
          "type": "bool"
        }
      ],
      "name": "setAllowlisted",
      "outputs": [],
      "stateMutability": "nonpayable",
      "type": "function"
    },
    {
      "inputs": [
        {
          "internalType": "address",
          "name": "account",
          "type": "address"
        },
        {
          "internalType": "bool",
          "name": "value",
          "type": "bool"
        }
      ],
      "name": "setBlocked",
      "outputs": [],
      "stateMutability": "nonpayable",
      "type": "function"
    },
    {
      "inputs": [
        {
          "internalType": "bool",
          "name": "complianceEnabled_",
          "type": "bool"
        },
        {
          "internalType": "bool",
          "name": "transfersRestricted_",
          "type": "bool"
        },
        {
          "internalType": "bool",
          "name": "kycRequired_",
          "type": "bool"
        }
      ],
      "name": "setComplianceFlags",
      "outputs": [],
      "stateMutability": "nonpayable",
      "type": "function"
    },
    {
      "inputs": [
        {
          "internalType": "address",
          "name": "account",
          "type": "address"
        },
        {
          "internalType": "bool",
          "name": "value",
          "type": "bool"
        }
      ],
      "name": "setKycValidated",
      "outputs": [],
      "stateMutability": "nonpayable",
      "type": "function"
    },
    {
      "inputs": [
        {
          "internalType": "uint256",
          "name": "newMaxSupply",
          "type": "uint256"
        }
      ],
      "name": "setMaxSupply",
      "outputs": [],
      "stateMutability": "nonpayable",
      "type": "function"
    },
    {
      "inputs": [
        {
          "internalType": "address",
          "name": "newRelayer",
          "type": "address"
        }
      ],
      "name": "setRelayer",
      "outputs": [],
      "stateMutability": "nonpayable",
      "type": "function"
    },
    {
      "inputs": [
        {
          "internalType": "address",
          "name": "newTreasury",
          "type": "address"
        }
      ],
      "name": "setTreasury",
      "outputs": [],
      "stateMutability": "nonpayable",
      "type": "function"
    },
    {
      "inputs": [
        {
          "internalType": "address",
          "name": "newTrustedRelayer",
          "type": "address"
        }
      ],
      "name": "setTrustedRelayer",
      "outputs": [],
      "stateMutability": "nonpayable",
      "type": "function"
    },
    {
      "inputs": [
        {
          "internalType": "address",
          "name": "subscriber",
          "type": "address"
        },
        {
          "internalType": "address",
          "name": "commissionReceiver",
          "type": "address"
        },
        {
          "internalType": "uint256",
          "name": "subscriptionCost",
          "type": "uint256"
        },
        {
          "internalType": "uint256",
          "name": "subscriptionDays",
          "type": "uint256"
        }
      ],
      "name": "subscribe",
      "outputs": [
        {
          "internalType": "bool",
          "name": "",
          "type": "bool"
        }
      ],
      "stateMutability": "nonpayable",
      "type": "function"
    },
    {
      "inputs": [
        {
          "internalType": "address",
          "name": "subscriber",
          "type": "address"
        },
        {
          "internalType": "address",
          "name": "commissionReceiver",
          "type": "address"
        },
        {
          "internalType": "uint256",
          "name": "planId",
          "type": "uint256"
        },
        {
          "internalType": "uint256",
          "name": "subscriptionCost",
          "type": "uint256"
        },
        {
          "internalType": "uint256",
          "name": "subscriptionDays",
          "type": "uint256"
        }
      ],
      "name": "subscribeWithPlan",
      "outputs": [
        {
          "internalType": "bool",
          "name": "",
          "type": "bool"
        }
      ],
      "stateMutability": "nonpayable",
      "type": "function"
    },
    {
      "inputs": [
        {
          "internalType": "address",
          "name": "",
          "type": "address"
        }
      ],
      "name": "subscriptionExpiry",
      "outputs": [
        {
          "internalType": "uint256",
          "name": "",
          "type": "uint256"
        }
      ],
      "stateMutability": "view",
      "type": "function"
    },
    {
      "inputs": [
        {
          "internalType": "bytes4",
          "name": "interfaceId",
          "type": "bytes4"
        }
      ],
      "name": "supportsInterface",
      "outputs": [
        {
          "internalType": "bool",
          "name": "",
          "type": "bool"
        }
      ],
      "stateMutability": "view",
      "type": "function"
    },
    {
      "inputs": [],
      "name": "symbol",
      "outputs": [
        {
          "internalType": "string",
          "name": "",
          "type": "string"
        }
      ],
      "stateMutability": "view",
      "type": "function"
    },
    {
      "inputs": [],
      "name": "totalSupply",
      "outputs": [
        {
          "internalType": "uint256",
          "name": "",
          "type": "uint256"
        }
      ],
      "stateMutability": "view",
      "type": "function"
    },
    {
      "inputs": [
        {
          "internalType": "address",
          "name": "to",
          "type": "address"
        },
        {
          "internalType": "uint256",
          "name": "value",
          "type": "uint256"
        }
      ],
      "name": "transfer",
      "outputs": [
        {
          "internalType": "bool",
          "name": "",
          "type": "bool"
        }
      ],
      "stateMutability": "nonpayable",
      "type": "function"
    },
    {
      "inputs": [
        {
          "internalType": "address",
          "name": "from",
          "type": "address"
        },
        {
          "internalType": "address[]",
          "name": "recipients",
          "type": "address[]"
        },
        {
          "internalType": "uint256[]",
          "name": "amounts",
          "type": "uint256[]"
        }
      ],
      "name": "transferBatch",
      "outputs": [
        {
          "internalType": "bool",
          "name": "",
          "type": "bool"
        }
      ],
      "stateMutability": "nonpayable",
      "type": "function"
    },
    {
      "inputs": [
        {
          "internalType": "address",
          "name": "addressBurn",
          "type": "address"
        },
        {
          "internalType": "address[]",
          "name": "recipients",
          "type": "address[]"
        },
        {
          "internalType": "uint256[]",
          "name": "amounts",
          "type": "uint256[]"
        },
        {
          "internalType": "uint256",
          "name": "amountBurn",
          "type": "uint256"
        }
      ],
      "name": "transferBatchWithBurn",
      "outputs": [
        {
          "internalType": "bool",
          "name": "",
          "type": "bool"
        }
      ],
      "stateMutability": "nonpayable",
      "type": "function"
    },
    {
      "inputs": [
        {
          "internalType": "address[]",
          "name": "recipients",
          "type": "address[]"
        },
        {
          "internalType": "uint256[]",
          "name": "amounts",
          "type": "uint256[]"
        },
        {
          "internalType": "uint256",
          "name": "amountMint",
          "type": "uint256"
        }
      ],
      "name": "transferBatchWithMint",
      "outputs": [
        {
          "internalType": "bool",
          "name": "",
          "type": "bool"
        }
      ],
      "stateMutability": "nonpayable",
      "type": "function"
    },
    {
      "inputs": [
        {
          "internalType": "address",
          "name": "from",
          "type": "address"
        },
        {
          "internalType": "address[]",
          "name": "recipients",
          "type": "address[]"
        },
        {
          "internalType": "uint256[]",
          "name": "amounts",
          "type": "uint256[]"
        }
      ],
      "name": "transferBatchwithdrawal",
      "outputs": [
        {
          "internalType": "bool",
          "name": "",
          "type": "bool"
        }
      ],
      "stateMutability": "nonpayable",
      "type": "function"
    },
    {
      "inputs": [
        {
          "internalType": "address",
          "name": "from",
          "type": "address"
        },
        {
          "internalType": "address",
          "name": "to",
          "type": "address"
        },
        {
          "internalType": "uint256",
          "name": "value",
          "type": "uint256"
        }
      ],
      "name": "transferFrom",
      "outputs": [
        {
          "internalType": "bool",
          "name": "",
          "type": "bool"
        }
      ],
      "stateMutability": "nonpayable",
      "type": "function"
    },
    {
      "inputs": [],
      "name": "transfersRestricted",
      "outputs": [
        {
          "internalType": "bool",
          "name": "",
          "type": "bool"
        }
      ],
      "stateMutability": "view",
      "type": "function"
    },
    {
      "inputs": [],
      "name": "treasury",
      "outputs": [
        {
          "internalType": "address",
          "name": "",
          "type": "address"
        }
      ],
      "stateMutability": "view",
      "type": "function"
    },
    {
      "inputs": [],
      "name": "trustedRelayer",
      "outputs": [
        {
          "internalType": "address",
          "name": "",
          "type": "address"
        }
      ],
      "stateMutability": "view",
      "type": "function"
    },
    {
      "inputs": [],
      "name": "unpause",
      "outputs": [],
      "stateMutability": "nonpayable",
      "type": "function"
    },
    {
      "inputs": [
        {
          "internalType": "address",
          "name": "newImplementation",
          "type": "address"
        },
        {
          "internalType": "bytes",
          "name": "data",
          "type": "bytes"
        }
      ],
      "name": "upgradeToAndCall",
      "outputs": [],
      "stateMutability": "payable",
      "type": "function"
    },
    {
      "stateMutability": "payable",
      "type": "receive"
    }
  ],
  "bytecode": "0x60a060405230608052348015610013575f80fd5b50608051615bb96200003b5f395f8181613c9d01528181613cc60152613e6a0152615bb95ff3fe608060405260043610610491575f3560e01c80638423df7911610257578063b96990911161013f578063d5abeb01116100be578063e596219511610083578063e596219514610e7b578063e63ab1e914610ea9578063e8ad5d8914610ec9578063f0f4426014610ee9578063f72c0d8b14610f08578063fc89873b14610f28575f80fd5b8063d5abeb0114610dd4578063d8376ee214610de9578063d83c827014610e1d578063dd62ed3e14610e3d578063e3c8a1d114610e5c575f80fd5b8063d11a57ec11610104578063d11a57ec14610d37578063d365013114610d57578063d505accf14610d76578063d539139314610d95578063d547741f14610db5575f80fd5b8063b969909114610c9b578063be29cc8c14610cbb578063c18b2ad014610cda578063c58dbbed14610cf9578063cd3fa04b14610d18575f80fd5b8063949701cf116101d6578063a217fddf1161019b578063a217fddf14610bc7578063a9059cbb14610bda578063ad3cb1cc14610bf9578063afdb4f6214610c29578063b2118a8d14610c5c578063b355112214610c7b575f80fd5b8063949701cf14610b1157806395d89b4114610b305780639aa5418114610b44578063a0712d6814610b63578063a0a8e46014610b82575f80fd5b80638e048e751161021c5780638e048e7514610a945780638fd10f72146108e35780639054b6cf14610ab357806391d1485414610ad2578063926d7d7f14610af1575f80fd5b80638423df79146109fb5780638456cb5914610a1b57806384b0196e14610a2f5780638596c22614610a565780638cacbcbc14610a75575f80fd5b80633f4ba83a1161037a5780636548e9bc116102f957806379cc6790116102be57806379cc67901461056c5780637ecebe001461095f5780637f00f6cf1461097e5780637fb801be1461099d5780638005cd94146109bc5780638406c079146109dc575f80fd5b80636548e9bc146108c45780636e5b21c1146108e35780636f8b44b01461090257806370a08231146109215780637756452f14610940575f80fd5b806352d1902d1161033f57806352d1902d1461080c578063541d5548146108205780635c975abb1461083f57806360a85ef51461086257806361d027b31461088d575f80fd5b80633f4ba83a1461077457806342966c68146107885780634f1ef286146107a75780634fc949d6146107ba57806350a3c161146107d9575f80fd5b806318160ddd11610411578063248a9ca3116103d6578063248a9ca3146106c8578063282c51f3146106e75780632f2ff15d14610707578063313ce567146107265780633644e5151461074157806336568abe14610755575f80fd5b806318160ddd146106185780631c6d6f141461064b5780631cc748591461066a578063206b60f91461068957806323b872dd146106a9575f80fd5b806306dd04191161045757806306dd04191461056c57806306fdde031461058b578063095ea7b3146105ac5780630f161105146105cb5780631291f79d146105f9575f80fd5b80620af2a11461049c57806301ffc9a7146104bd57806303f45d41146104f157806304ae864b1461051f578063062d3bd71461053e575f80fd5b3661049857005b5f80fd5b3480156104a7575f80fd5b506104bb6104b6366004614f64565b610f47565b005b3480156104c8575f80fd5b506104dc6104d7366004614f97565b61101a565b60405190151581526020015b60405180910390f35b3480156104fc575f80fd5b506104dc61050b366004614fbe565b60376020525f908152604090205460ff1681565b34801561052a575f80fd5b506104dc610539366004614fd9565b61102a565b348015610549575f80fd5b5061055e5f80516020615a8483398151915281565b6040519081526020016104e8565b348015610577575f80fd5b506104bb610586366004615017565b6111b9565b348015610596575f80fd5b5061059f611259565b6040516104e89190615084565b3480156105b7575f80fd5b506104dc6105c6366004615017565b6112fe565b3480156105d6575f80fd5b506104dc6105e5366004614fbe565b60386020525f908152604090205460ff1681565b348015610604575f80fd5b506104bb610613366004615017565b611315565b348015610623575f80fd5b507f52c63247e1f47db19d5ce0460030c497f067ca4cebf71ba98eeadabe20bace025461055e565b348015610656575f80fd5b506104dc6106653660046150de565b61145d565b348015610675575f80fd5b506104bb610684366004615017565b6116c3565b348015610694575f80fd5b5061055e5f805160206159a483398151915281565b3480156106b4575f80fd5b506104dc6106c3366004614fd9565b6117ae565b3480156106d3575f80fd5b5061055e6106e2366004615163565b6117d1565b3480156106f2575f80fd5b5061055e5f805160206159c483398151915281565b348015610712575f80fd5b506104bb61072136600461517a565b6117f1565b348015610731575f80fd5b50604051600a81526020016104e8565b34801561074c575f80fd5b5061055e611813565b348015610760575f80fd5b506104bb61076f36600461517a565b611821565b34801561077f575f80fd5b506104bb611854565b348015610793575f80fd5b506104bb6107a2366004615163565b6118a3565b6104bb6107b536600461522f565b6118d4565b3480156107c5575f80fd5b5061055e6107d4366004614fbe565b6118f3565b3480156107e4575f80fd5b5061055e7f0562e1d244a9c7760ade57f725130660a84a432a7bba32c654b479e3bac93d2481565b348015610817575f80fd5b5061055e61194a565b34801561082b575f80fd5b506104dc61083a366004614fbe565b611965565b34801561084a575f80fd5b505f80516020615b248339815191525460ff166104dc565b34801561086d575f80fd5b5061055e61087c366004614fbe565b60396020525f908152604090205481565b348015610898575f80fd5b506033546108ac906001600160a01b031681565b6040516001600160a01b0390911681526020016104e8565b3480156108cf575f80fd5b506104bb6108de366004614fbe565b61196f565b3480156108ee575f80fd5b506104dc6108fd36600461528f565b611b16565b34801561090d575f80fd5b506104bb61091c366004615163565b611b49565b34801561092c575f80fd5b5061055e61093b366004614fbe565b611c13565b34801561094b575f80fd5b506104dc61095a36600461530c565b611c43565b34801561096a575f80fd5b5061055e610979366004614fbe565b611e0d565b348015610989575f80fd5b506104bb610998366004614f64565b611e17565b3480156109a8575f80fd5b506104dc6109b736600461537a565b611ed8565b3480156109c7575f80fd5b5061055e5f80516020615a2483398151915281565b3480156109e7575f80fd5b506034546108ac906001600160a01b031681565b348015610a06575f80fd5b506035546104dc90600160a81b900460ff1681565b348015610a26575f80fd5b506104bb6121d6565b348015610a3a575f80fd5b50610a43612222565b6040516104e897969594939291906153bd565b348015610a61575f80fd5b506035546108ac906001600160a01b031681565b348015610a80575f80fd5b506104dc610a8f366004615454565b612264565b348015610a9f575f80fd5b506104dc610aae366004614fbe565b612520565b348015610abe575f80fd5b506104bb610acd366004614fbe565b61255d565b348015610add575f80fd5b506104dc610aec36600461517a565b612643565b348015610afc575f80fd5b5061055e5f80516020615a0483398151915281565b348015610b1c575f80fd5b506104bb610b2b3660046154a1565b612679565b348015610b3b575f80fd5b5061059f6127e1565b348015610b4f575f80fd5b506104bb610b5e366004614f64565b61281f565b348015610b6e575f80fd5b506104bb610b7d366004615163565b6128e0565b348015610b8d575f80fd5b5060408051808201909152601981527f452d574152492d555550532d434f4d5041542d56312e302e3000000000000000602082015261059f565b348015610bd2575f80fd5b5061055e5f81565b348015610be5575f80fd5b506104dc610bf4366004615017565b61297f565b348015610c04575f80fd5b5061059f604051806040016040528060058152602001640352e302e360dc1b81525081565b348015610c34575f80fd5b5061055e7f617f090c5c25c03926349842bc8af0f3c3a16c2162ce4991581995a8cb3efd0981565b348015610c67575f80fd5b506104bb610c76366004614fd9565b61298c565b348015610c86575f80fd5b5061055e5f80516020615b6483398151915281565b348015610ca6575f80fd5b506035546104dc90600160b01b900460ff1681565b348015610cc6575f80fd5b506104bb610cd53660046154a1565b612ac6565b348015610ce5575f80fd5b506104bb610cf4366004615017565b612c27565b348015610d04575f80fd5b506104bb610d13366004614fbe565b612c80565b348015610d23575f80fd5b506104bb610d3236600461550f565b612e92565b348015610d42575f80fd5b5061055e5f80516020615b4483398151915281565b348015610d62575f80fd5b506104bb610d713660046155b8565b613133565b348015610d81575f80fd5b506104bb610d903660046155ef565b613209565b348015610da0575f80fd5b5061055e5f80516020615ac483398151915281565b348015610dc0575f80fd5b506104bb610dcf36600461517a565b61335e565b348015610ddf575f80fd5b5061055e60325481565b348015610df4575f80fd5b5061055e610e03366004614fbe565b6001600160a01b03165f9081526039602052604090205490565b348015610e28575f80fd5b506035546104dc90600160a01b900460ff1681565b348015610e48575f80fd5b5061055e610e57366004615643565b61337a565b348015610e67575f80fd5b506104bb610e76366004614fbe565b6133c3565b348015610e86575f80fd5b506104dc610e95366004614fbe565b60366020525f908152604090205460ff1681565b348015610eb4575f80fd5b5061055e5f80516020615aa483398151915281565b348015610ed4575f80fd5b5061055e5f80516020615ae483398151915281565b348015610ef4575f80fd5b506104bb610f03366004614fbe565b613435565b348015610f13575f80fd5b5061055e5f80516020615a4483398151915281565b348015610f33575f80fd5b506104bb610f423660046154a1565b613542565b5f80516020615a84833981519152610f5f8133612643565b80610f6f5750610f6f5f33612643565b610f945760405162461bcd60e51b8152600401610f8b9061566f565b60405180910390fd5b6001600160a01b038316610fba5760405162461bcd60e51b8152600401610f8b9061569c565b6001600160a01b0383165f81815260366020908152604091829020805460ff191686151590811790915591519182527f3d74e35a9d41311f76b38962aa3083fae57f31449b380f1600cd53e8b5e1cfb591015b60405180910390a2505050565b5f611024826136a3565b92915050565b5f6110336136d7565b61103b613709565b6001600160a01b0384166110845760405162461bcd60e51b815260206004820152601060248201526f45574152493a2066726f6d207a65726f60801b6044820152606401610f8b565b6001600160a01b0383166110aa5760405162461bcd60e51b8152600401610f8b906156c9565b5f82116110c95760405162461bcd60e51b8152600401610f8b906156f1565b336001600160a01b03851614806110e457506110e433613731565b61113e5760405162461bcd60e51b815260206004820152602560248201527f45574152493a2063616c6c6572206d7573742062652066726f6d206f722072656044820152643630bcb2b960d91b6064820152608401610f8b565b61114984848461379b565b826001600160a01b0316846001600160a01b03166111643390565b6001600160a01b03167fe40d6aa497b1d01e16ced623a4af6c2293dac5a4e9107ce22e44ac710160675f8560405161119e91815260200190565b60405180910390a45060016111b260015f55565b9392505050565b6111c16136d7565b5f805160206159c48339815191526111d98133612643565b806111e957506111e95f33612643565b6112055760405162461bcd60e51b8152600401610f8b9061566f565b6001600160a01b03831661122b5760405162461bcd60e51b8152600401610f8b9061569c565b5f821161124a5760405162461bcd60e51b8152600401610f8b9061571d565b61125483836137fe565b505050565b60605f5f805160206159e48339815191525b905080600301805461127c90615754565b80601f01602080910402602001604051908101604052809291908181526020018280546112a890615754565b80156112f35780601f106112ca576101008083540402835291602001916112f3565b820191905f5260205f20905b8154815290600101906020018083116112d657829003601f168201915b505050505091505090565b5f3361130b818585613832565b5060019392505050565b5f80516020615b4483398151915261132d8133612643565b8061133d575061133d5f33612643565b6113595760405162461bcd60e51b8152600401610f8b9061566f565b6001600160a01b03831661137f5760405162461bcd60e51b8152600401610f8b906156c9565b5f821161139e5760405162461bcd60e51b8152600401610f8b906156f1565b814710156113ee5760405162461bcd60e51b815260206004820152601a60248201527f45574152493a20696e73756666696369656e74206e61746976650000000000006044820152606401610f8b565b6040516001600160a01b0384169083156108fc029084905f818181858888f19350505050158015611421573d5f803e3d5ffd5b50826001600160a01b03167ffdf9af81fab92b918baa794ad0e9ba32c6869f6a87ce9463f2ef50e1bf7c27e58360405161100d91815260200190565b5f6114666136d7565b61146e613709565b5f80516020615a248339815191526114868133612643565b8061149657506114965f33612643565b6114b25760405162461bcd60e51b8152600401610f8b9061566f565b6114c95f805160206159c483398151915233612643565b806114d957506114d95f33612643565b6115255760405162461bcd60e51b815260206004820152601b60248201527f45574152493a206275726e657220726f6c6520726571756972656400000000006044820152606401610f8b565b6001600160a01b03881661157b5760405162461bcd60e51b815260206004820152601860248201527f45574152493a206275726e2061646472657373207a65726f00000000000000006044820152606401610f8b565b5f6115888888888861383f565b9050831561159a5761159a89856137fe565b806115a48a611c13565b10156116015760405162461bcd60e51b815260206004820152602660248201527f45574152493a20696e73756666696369656e742062616c616e636520616674656044820152653910313ab93760d11b6064820152608401610f8b565b5f5b8781101561165c576116548a8a8a848181106116215761162161578c565b90506020020160208101906116369190614fbe565b8989858181106116485761164861578c565b9050602002013561379b565b600101611603565b50604080518581526020810189905280820183905290516001600160a01b038b169133917fee44c3f7d2c8d9b5c9c4695eb89450c141b400aa52abdddfd9de296f5a6f49e79181900360600190a36001925050506116b960015f55565b9695505050505050565b6116cb6136d7565b5f80516020615ac48339815191526116e38133612643565b806116f357506116f35f33612643565b61170f5760405162461bcd60e51b8152600401610f8b9061566f565b6001600160a01b03831661175b5760405162461bcd60e51b815260206004820152601360248201527245574152493a206d696e7420746f207a65726f60681b6044820152606401610f8b565b5f82116117a45760405162461bcd60e51b815260206004820152601760248201527645574152493a206d696e7420616d6f756e74207a65726f60481b6044820152606401610f8b565b61125483836139bf565b5f336117bb858285613aa1565b6117c685858561379b565b506001949350505050565b5f9081525f80516020615b04833981519152602052604090206001015490565b6117fa826117d1565b61180381613aff565b61180d8383613b09565b50505050565b5f61181c613bb1565b905090565b6001600160a01b038116331461184a5760405163334bd91960e11b815260040160405180910390fd5b6112548282613bba565b5f80516020615aa483398151915261186c8133612643565b8061187c575061187c5f33612643565b6118985760405162461bcd60e51b8152600401610f8b9061566f565b6118a0613c33565b50565b6118ab6136d7565b5f81116118ca5760405162461bcd60e51b8152600401610f8b9061571d565b6118a033826137fe565b6118dc613c92565b6118e582613d36565b6118ef8282613da3565b5050565b6001600160a01b0381165f90815260396020526040812054421061191857505f919050565b6001600160a01b0382165f9081526039602052604090205462015180906119409042906157b4565b61102491906157c7565b5f611953613e5f565b505f80516020615a6483398151915290565b5f61102482613731565b6001600160a01b0381166119955760405162461bcd60e51b8152600401610f8b906157e6565b6034546001600160a01b0316336001600160a01b031614806119ca57506035546001600160a01b0316336001600160a01b0316145b806119e757506119e75f80516020615a0483398151915233612643565b806119f757506119f75f33612643565b611a4e5760405162461bcd60e51b815260206004820152602260248201527f45574152493a20756e617574686f72697a65642072656c617965722075706461604482015261746560f01b6064820152608401610f8b565b603480546001600160a01b038381166001600160a01b03198084168217909455603580549094161790925516611a915f80516020615a0483398151915283613b09565b50816001600160a01b0316816001600160a01b03167f605ca4e43489fb38b91aa63dd9147cd3847957694b080b9285ec898b34269f0c60405160405180910390a3816001600160a01b0316816001600160a01b03167fe18cc5add5d4487baa48e812ee416c12f94ca42e7a147e0039b543943b6a4e2760405160405180910390a35050565b5f611b1f6136d7565b611b27613709565b611b348686868686613ea8565b506001611b4060015f55565b95945050505050565b5f611b5381613aff565b811580611b8157507f52c63247e1f47db19d5ce0460030c497f067ca4cebf71ba98eeadabe20bace02548210155b611bcd5760405162461bcd60e51b815260206004820152601f60248201527f45574152493a206d61782062656c6f772063757272656e7420737570706c79006044820152606401610f8b565b603280549083905560408051828152602081018590527f44ecfc706d63e347851cfd40acfa6cf2e3a41faa3e8b460210c03938e84a91ad910160405180910390a1505050565b5f805f805160206159e48339815191525b6001600160a01b039093165f9081526020939093525050604090205490565b5f611c4c6136d7565b611c54613709565b5f80516020615a24833981519152611c6c8133612643565b80611c7c5750611c7c5f33612643565b611c985760405162461bcd60e51b8152600401610f8b9061566f565b611caf5f80516020615ac483398151915233612643565b80611cbf5750611cbf5f33612643565b611d0b5760405162461bcd60e51b815260206004820152601b60248201527f45574152493a206d696e74657220726f6c6520726571756972656400000000006044820152606401610f8b565b5f611d188888888861383f565b90508315611d2a57611d2a33856139bf565b80611d3433611c13565b1015611d915760405162461bcd60e51b815260206004820152602660248201527f45574152493a20696e73756666696369656e742062616c616e636520616674656044820152651c881b5a5b9d60d21b6064820152608401610f8b565b5f5b87811015611db957611db1338a8a848181106116215761162161578c565b600101611d93565b50604080518581526020810189905290810182905233907f302f400ce50431c9f4d265b61378ae22e6f916b210df6b8dadc896b500ba155f906060015b60405180910390a2600192505050611b4060015f55565b5f61102482614033565b5f80516020615a84833981519152611e2f8133612643565b80611e3f5750611e3f5f33612643565b611e5b5760405162461bcd60e51b8152600401610f8b9061566f565b6001600160a01b038316611e815760405162461bcd60e51b8152600401610f8b9061569c565b6001600160a01b0383165f81815260386020908152604091829020805460ff191686151590811790915591519182527fa2ddaab39870455842b078c26cb118eec0c60f27857135ed012d70a8848223cb910161100d565b5f611ee16136d7565b611ee9613709565b6001600160a01b038516611f385760405162461bcd60e51b815260206004820152601660248201527545574152493a2073756273637269626572207a65726f60501b6044820152606401610f8b565b6001600160a01b038416611f875760405162461bcd60e51b815260206004820152601660248201527545574152493a20636f6d6d697373696f6e207a65726f60501b6044820152606401610f8b565b5f8311611fc95760405162461bcd60e51b815260206004820152601060248201526f45574152493a20636f7374207a65726f60801b6044820152606401610f8b565b5f821161200b5760405162461bcd60e51b815260206004820152601060248201526f45574152493a2064617973207a65726f60801b6044820152606401610f8b565b336001600160a01b038616146120685761202433613731565b15801561204557506120435f80516020615ae483398151915233612643565b155b801561205857506120565f33612643565b155b1561206857612068853385613aa1565b8261207286611c13565b10156120905760405162461bcd60e51b8152600401610f8b90615813565b61209b85858561379b565b6001600160a01b0385165f908152603960205260408120544211156120c15750426120db565b506001600160a01b0385165f908152603960205260409020545b6120e8836201518061584a565b6120f29082615861565b6001600160a01b0387165f90815260396020526040902081905590506121255f80516020615b6483398151915287613b09565b50846001600160a01b0316866001600160a01b03167fe16d101460b5c5112eac2731755e4984e2de5eeff3148c0bc4c4f49c4b9c8af38684604051612174929190918252602082015260400190565b60405180910390a360408051858152602081018390526001600160a01b038816917f6d458fa94cc5b30d7877bed127c2029f98bc0cbc4634dc7789b6bc804fbdae03910160405180910390a260019150506121ce60015f55565b949350505050565b5f80516020615aa48339815191526121ee8133612643565b806121fe57506121fe5f33612643565b61221a5760405162461bcd60e51b8152600401610f8b9061566f565b6118a061405b565b5f6060805f805f60606122336140a3565b61223b6140f4565b604080515f80825260208201909252600f60f81b9b939a50919850469750309650945092509050565b5f61226d6136d7565b612275613709565b5f80516020615ae483398151915261228d8133612643565b8061229d575061229d5f33612643565b6122b95760405162461bcd60e51b8152600401610f8b9061566f565b6001600160a01b0387166123085760405162461bcd60e51b815260206004820152601660248201527545574152493a2073756273637269626572207a65726f60501b6044820152606401610f8b565b6001600160a01b0386166123575760405162461bcd60e51b815260206004820152601660248201527545574152493a20636f6d6d697373696f6e207a65726f60501b6044820152606401610f8b565b5f84116123995760405162461bcd60e51b815260206004820152601060248201526f45574152493a20636f7374207a65726f60801b6044820152606401610f8b565b5f83116123db5760405162461bcd60e51b815260206004820152601060248201526f45574152493a2064617973207a65726f60801b6044820152606401610f8b565b836123e588611c13565b10156124035760405162461bcd60e51b8152600401610f8b90615813565b61240e87878661379b565b6001600160a01b0387165f9081526039602052604081205442111561243457504261244e565b506001600160a01b0387165f908152603960205260409020545b61245b846201518061584a565b6124659082615861565b6001600160a01b0389165f90815260396020526040902081905590506124985f80516020615b6483398151915289613b09565b50604080518681526020810183905287916001600160a01b038b16917f652f09c0c76e33426bc8ace2a666415e773e6bb00df22c94899953563e95d435910160405180910390a360408051868152602081018390526001600160a01b038a16917f6d458fa94cc5b30d7877bed127c2029f98bc0cbc4634dc7789b6bc804fbdae039101611df6565b5f6125385f80516020615b6483398151915283612643565b80156110245750506001600160a01b03165f9081526039602052604090205442111590565b5f80516020615a048339815191526125758133612643565b8061258557506125855f33612643565b6125a15760405162461bcd60e51b8152600401610f8b9061566f565b6001600160a01b0382166125c75760405162461bcd60e51b8152600401610f8b906157e6565b603580546001600160a01b038481166001600160a01b0319831617909255166125fd5f80516020615a0483398151915284613b09565b50826001600160a01b0316816001600160a01b03167fe18cc5add5d4487baa48e812ee416c12f94ca42e7a147e0039b543943b6a4e2760405160405180910390a3505050565b5f9182525f80516020615b04833981519152602090815260408084206001600160a01b0393909316845291905290205460ff1690565b5f80516020615a848339815191526126918133612643565b806126a157506126a15f33612643565b6126bd5760405162461bcd60e51b8152600401610f8b9061566f565b5f5b838110156127da575f8585838181106126da576126da61578c565b90506020020160208101906126ef9190614fbe565b6001600160a01b0316036127155760405162461bcd60e51b8152600401610f8b9061569c565b8260365f87878581811061272b5761272b61578c565b90506020020160208101906127409190614fbe565b6001600160a01b0316815260208101919091526040015f20805460ff19169115159190911790558484828181106127795761277961578c565b905060200201602081019061278e9190614fbe565b6001600160a01b03167f3d74e35a9d41311f76b38962aa3083fae57f31449b380f1600cd53e8b5e1cfb5846040516127ca911515815260200190565b60405180910390a26001016126bf565b5050505050565b7f52c63247e1f47db19d5ce0460030c497f067ca4cebf71ba98eeadabe20bace0480546060915f805160206159e48339815191529161127c90615754565b5f80516020615a848339815191526128378133612643565b8061284757506128475f33612643565b6128635760405162461bcd60e51b8152600401610f8b9061566f565b6001600160a01b0383166128895760405162461bcd60e51b8152600401610f8b9061569c565b6001600160a01b0383165f81815260376020908152604091829020805460ff191686151590811790915591519182527f8d559a62e7319d4b048cd2810efe51c7ef63919726609d552c3e46ab2a6cbe61910161100d565b6128e86136d7565b5f80516020615ac48339815191526129008133612643565b8061291057506129105f33612643565b61292c5760405162461bcd60e51b8152600401610f8b9061566f565b5f82116129755760405162461bcd60e51b815260206004820152601760248201527645574152493a206d696e7420616d6f756e74207a65726f60481b6044820152606401610f8b565b6118ef33836139bf565b5f3361130b81858561379b565b5f80516020615b448339815191526129a48133612643565b806129b457506129b45f33612643565b6129d05760405162461bcd60e51b8152600401610f8b9061566f565b6001600160a01b038416612a1a5760405162461bcd60e51b815260206004820152601160248201527045574152493a20746f6b656e207a65726f60781b6044820152606401610f8b565b6001600160a01b038316612a405760405162461bcd60e51b8152600401610f8b906156c9565b5f8211612a5f5760405162461bcd60e51b8152600401610f8b906156f1565b612a736001600160a01b038516848461411d565b826001600160a01b0316846001600160a01b03167f9b793652de97f04c5168920587bad4b1c6345295a8f5ad31c59ff946a26f91d284604051612ab891815260200190565b60405180910390a350505050565b5f80516020615a84833981519152612ade8133612643565b80612aee5750612aee5f33612643565b612b0a5760405162461bcd60e51b8152600401610f8b9061566f565b5f5b838110156127da575f858583818110612b2757612b2761578c565b9050602002016020810190612b3c9190614fbe565b6001600160a01b031603612b625760405162461bcd60e51b8152600401610f8b9061569c565b8260375f878785818110612b7857612b7861578c565b9050602002016020810190612b8d9190614fbe565b6001600160a01b0316815260208101919091526040015f20805460ff1916911515919091179055848482818110612bc657612bc661578c565b9050602002016020810190612bdb9190614fbe565b6001600160a01b03167f8d559a62e7319d4b048cd2810efe51c7ef63919726609d552c3e46ab2a6cbe6184604051612c17911515815260200190565b60405180910390a2600101612b0c565b612c2f6136d7565b6001600160a01b038216612c555760405162461bcd60e51b8152600401610f8b9061569c565b5f8111612c745760405162461bcd60e51b8152600401610f8b9061571d565b3361124a838284613aa1565b5f612c8a81613aff565b6001600160a01b038216612cb05760405162461bcd60e51b8152600401610f8b9061569c565b336001600160a01b03831603612d085760405162461bcd60e51b815260206004820152601960248201527f45574152493a2063616e6e6f74207265766f6b652073656c66000000000000006044820152606401610f8b565b612d1f5f80516020615a4483398151915283613bba565b50612d375f80516020615ac483398151915283613bba565b50612d4f5f805160206159c483398151915283613bba565b50612d675f80516020615aa483398151915283613bba565b50612d7f5f80516020615a0483398151915283613bba565b50612daa7f0562e1d244a9c7760ade57f725130660a84a432a7bba32c654b479e3bac93d2483613bba565b50612dc25f80516020615a2483398151915283613bba565b50612dda5f80516020615ae483398151915283613bba565b50612df25f80516020615a8483398151915283613bba565b50612e0a5f80516020615b4483398151915283613bba565b50612e225f805160206159a483398151915283613bba565b50612e4d7f617f090c5c25c03926349842bc8af0f3c3a16c2162ce4991581995a8cb3efd0983613bba565b50612e585f83613bba565b5060405133906001600160a01b038416907fb04b8aceb976a327542b7ee038c8d0a1b4f86807379e073d08241fc1b5b13e69905f90a35050565b5f612e9b614152565b805490915060ff600160401b820416159067ffffffffffffffff165f81158015612ec25750825b90505f8267ffffffffffffffff166001148015612ede5750303b155b905081158015612eec575080155b15612f0a5760405163f92ee8a960e01b815260040160405180910390fd5b845467ffffffffffffffff191660011785558315612f3457845460ff60401b1916600160401b1785555b6001600160a01b038a16612f7e5760405162461bcd60e51b815260206004820152601160248201527045574152493a2061646d696e207a65726f60781b6044820152606401610f8b565b6001600160a01b038916612fcb5760405162461bcd60e51b815260206004820152601460248201527345574152493a207472656173757279207a65726f60601b6044820152606401610f8b565b6001600160a01b038816612ff15760405162461bcd60e51b8152600401610f8b906157e6565b612ffb8c8c61417a565b61300361418c565b61300c8c614194565b61301461418c565b61301c6141bf565b603380546001600160a01b03808c166001600160a01b03199283161790925560348054928b1692909116821790556035805460328990556001600160b81b031916909117905561306b8a6141cf565b896001600160a01b0316896001600160a01b03161461309d5761309b5f80516020615b448339815191528a613b09565b505b896001600160a01b0316886001600160a01b0316146130cf576130cd5f80516020615a0483398151915289613b09565b505b86156130df576130df8a886139bf565b831561312557845460ff60401b19168555604051600181527fc7f505b2f371ae2175ee4913f4499e1f2633a7b5936321eed1cdaeb6115181d29060200160405180910390a15b505050505050505050505050565b5f80516020615a8483398151915261314b8133612643565b8061315b575061315b5f33612643565b6131775760405162461bcd60e51b8152600401610f8b9061566f565b6035805461ffff60a01b1916600160a01b86151590810260ff60a81b191691909117600160a81b8615159081029190911760ff60b01b1916600160b01b861515908102919091179093556040805192835260208301919091528101919091527f27458c86d85584d1925b37f772c7b89840ad75e7c5bc41fea9fd41dd0140e8e79060600160405180910390a150505050565b8342111561322d5760405163313c898160e11b815260048101859052602401610f8b565b5f7f6e71edae12b1b97f4d1f60370fef10105fa2faae0126114a169c64845d6126c98888886132978c6001600160a01b03165f9081527f5ab42ced628888259c08ac98db1eb0cf702fc1501344311d8b100cd1bfe4bb006020526040902080546001810190915590565b6040805160208101969096526001600160a01b0394851690860152929091166060840152608083015260a082015260c0810186905260e0016040516020818303038152906040528051906020012090505f6132f182614345565b90505f61330082878787614371565b9050896001600160a01b0316816001600160a01b031614613347576040516325c0072360e11b81526001600160a01b0380831660048301528b166024820152604401610f8b565b6133528a8a8a613832565b50505050505050505050565b613367826117d1565b61337081613aff565b61180d8383613bba565b6001600160a01b039182165f9081527f52c63247e1f47db19d5ce0460030c497f067ca4cebf71ba98eeadabe20bace016020908152604080832093909416825291909152205490565b5f6133cd81613aff565b6001600160a01b0382166133f35760405162461bcd60e51b8152600401610f8b9061569c565b6133fc826141cf565b60405133906001600160a01b038416907f332ec879a566199fa05136f48c9b04941de300c8d1e0d6d0c5222476e568c849905f90a35050565b5f80516020615b4483398151915261344d8133612643565b8061345d575061345d5f33612643565b6134795760405162461bcd60e51b8152600401610f8b9061566f565b6001600160a01b0382166134c65760405162461bcd60e51b815260206004820152601460248201527345574152493a207472656173757279207a65726f60601b6044820152606401610f8b565b603380546001600160a01b038481166001600160a01b0319831617909255166134fc5f80516020615b4483398151915284613b09565b50826001600160a01b0316816001600160a01b03167f4ab5be82436d353e61ca18726e984e561f5c1cc7c6d38b29d2553c790434705a60405160405180910390a3505050565b5f80516020615a8483398151915261355a8133612643565b8061356a575061356a5f33612643565b6135865760405162461bcd60e51b8152600401610f8b9061566f565b5f5b838110156127da575f8585838181106135a3576135a361578c565b90506020020160208101906135b89190614fbe565b6001600160a01b0316036135de5760405162461bcd60e51b8152600401610f8b9061569c565b8260385f8787858181106135f4576135f461578c565b90506020020160208101906136099190614fbe565b6001600160a01b0316815260208101919091526040015f20805460ff19169115159190911790558484828181106136425761364261578c565b90506020020160208101906136579190614fbe565b6001600160a01b03167fa2ddaab39870455842b078c26cb118eec0c60f27857135ed012d70a8848223cb84604051613693911515815260200190565b60405180910390a2600101613588565b5f6001600160e01b03198216637965db0b60e01b148061102457506301ffc9a760e01b6001600160e01b0319831614611024565b5f80516020615b248339815191525460ff16156137075760405163d93c066560e01b815260040160405180910390fd5b565b60025f540361372b57604051633ee5aeb560e01b815260040160405180910390fd5b60025f55565b5f6001600160a01b0382161580159061102457506034546001600160a01b038381169116148061376e57506035546001600160a01b038381169116145b8061378b575061378b5f80516020615a0483398151915283612643565b8061102457506110245f83612643565b6001600160a01b0383166137c457604051634b637e8f60e11b81525f6004820152602401610f8b565b6001600160a01b0382166137ed5760405163ec442f0560e01b81525f6004820152602401610f8b565b61125483838361439d565b60015f55565b6001600160a01b03821661382757604051634b637e8f60e11b81525f6004820152602401610f8b565b6118ef825f8361439d565b61125483838360016143b2565b5f836138825760405162461bcd60e51b815260206004820152601260248201527108aae82a4927440cadae0e8f240c4c2e8c6d60731b6044820152606401610f8b565b8382146138d15760405162461bcd60e51b815260206004820152601d60248201527f45574152493a20617272617973206c656e677468206d69736d617463680000006044820152606401610f8b565b5f5b848110156139b6575f8686838181106138ee576138ee61578c565b90506020020160208101906139039190614fbe565b6001600160a01b0316036139515760405162461bcd60e51b815260206004820152601560248201527445574152493a20726563697069656e74207a65726f60581b6044820152606401610f8b565b5f8484838181106139645761396461578c565b90506020020135116139885760405162461bcd60e51b8152600401610f8b906156f1565b83838281811061399a5761399a61578c565b90506020020135826139ac9190615861565b91506001016138d3565b50949350505050565b6001600160a01b038216613a0b5760405162461bcd60e51b815260206004820152601360248201527245574152493a206d696e7420746f207a65726f60681b6044820152606401610f8b565b60325415613a975760325481613a3f7f52c63247e1f47db19d5ce0460030c497f067ca4cebf71ba98eeadabe20bace025490565b613a499190615861565b1115613a975760405162461bcd60e51b815260206004820152601a60248201527f45574152493a206d617820737570706c792065786365656465640000000000006044820152606401610f8b565b6118ef8282614495565b5f613aac848461337a565b90505f1981101561180d5781811015613af157604051637dc7a0d960e11b81526001600160a01b03841660048201526024810182905260448101839052606401610f8b565b61180d84848484035f6143b2565b6118a081336144c9565b5f5f80516020615b04833981519152613b228484612643565b613ba1575f848152602082815260408083206001600160a01b03871684529091529020805460ff19166001179055613b573390565b6001600160a01b0316836001600160a01b0316857f2f8788117e7eff1d82e926ec794901d17c78024a50270940304540a733656f0d60405160405180910390a46001915050611024565b5f915050611024565b5092915050565b5f61181c614502565b5f5f80516020615b04833981519152613bd38484612643565b15613ba1575f848152602082815260408083206001600160a01b0387168085529252808320805460ff1916905551339287917ff6391f5c32d9c69d2a47ea670b442974b53935d1edc7fd64eb21e047a839171b9190a46001915050611024565b613c3b614575565b5f80516020615b24833981519152805460ff191681557f5db9ee0a495bf2e6ff9c91a7834c1ba4fdd244a5e8aa4e537bd38aeae4b073aa335b6040516001600160a01b03909116815260200160405180910390a150565b306001600160a01b037f0000000000000000000000000000000000000000000000000000000000000000161480613d1857507f00000000000000000000000000000000000000000000000000000000000000006001600160a01b0316613d0c5f80516020615a64833981519152546001600160a01b031690565b6001600160a01b031614155b156137075760405163703e46dd60e11b815260040160405180910390fd5b5f80516020615a44833981519152613d4d81613aff565b6001600160a01b0382166118ef5760405162461bcd60e51b815260206004820152601a60248201527f45574152493a20696d706c656d656e746174696f6e207a65726f0000000000006044820152606401610f8b565b816001600160a01b03166352d1902d6040518163ffffffff1660e01b8152600401602060405180830381865afa925050508015613dfd575060408051601f3d908101601f19168201909252613dfa91810190615874565b60015b613e2557604051634c9c8ce360e01b81526001600160a01b0383166004820152602401610f8b565b5f80516020615a648339815191528114613e5557604051632a87526960e21b815260048101829052602401610f8b565b61125483836145a4565b306001600160a01b037f000000000000000000000000000000000000000000000000000000000000000016146137075760405163703e46dd60e11b815260040160405180910390fd5b6001600160a01b038516613ef15760405162461bcd60e51b815260206004820152601060248201526f45574152493a2066726f6d207a65726f60801b6044820152606401610f8b565b5f613efe8585858561383f565b9050336001600160a01b03871614613f6b57613f275f80516020615a2483398151915233612643565b158015613f485750613f465f805160206159a483398151915233612643565b155b8015613f5b5750613f595f33612643565b155b15613f6b57613f6b863383613aa1565b80613f7587611c13565b1015613f935760405162461bcd60e51b8152600401610f8b90615813565b5f5b84811015613fe257613fda87878784818110613fb357613fb361578c565b9050602002016020810190613fc89190614fbe565b8686858181106116485761164861578c565b600101613f95565b50604080518581526020810183905281516001600160a01b0389169233927f11545b22e85dd851103fdaeff84f4db960c8ea9ef39898c3f2b32b8e14913bfd929081900390910190a3505050505050565b5f807f5ab42ced628888259c08ac98db1eb0cf702fc1501344311d8b100cd1bfe4bb00611c24565b6140636136d7565b5f80516020615b24833981519152805460ff191660011781557f62e78cea01bee320cd4e420270b5ea74000d11b0c9f74754ebdbfc544b05a25833613c74565b7fa16a46d94261c7517cc8ff89f61c0ce93598e3c849801011dee649a6a557d10280546060917fa16a46d94261c7517cc8ff89f61c0ce93598e3c849801011dee649a6a557d1009161127c90615754565b60605f7fa16a46d94261c7517cc8ff89f61c0ce93598e3c849801011dee649a6a557d10061126b565b61412a83838360016145f9565b61125457604051635274afe760e01b81526001600160a01b0384166004820152602401610f8b565b5f807ff0c57e16840df040f15088dc2f81fe391c3923bec73e23a9662efc9c229c6a00611024565b61418261465b565b6118ef8282614680565b61370761465b565b61419c61465b565b6118a081604051806040016040528060018152602001603160f81b8152506146d0565b6141c761465b565b613707614733565b6001600160a01b0381166141f55760405162461bcd60e51b8152600401610f8b9061569c565b6141ff5f82613b09565b506142175f80516020615a4483398151915282613b09565b5061422f5f80516020615ac483398151915282613b09565b506142475f805160206159c483398151915282613b09565b5061425f5f80516020615aa483398151915282613b09565b506142775f80516020615a0483398151915282613b09565b506142a27f0562e1d244a9c7760ade57f725130660a84a432a7bba32c654b479e3bac93d2482613b09565b506142ba5f80516020615a2483398151915282613b09565b506142d25f80516020615ae483398151915282613b09565b506142ea5f80516020615a8483398151915282613b09565b506143025f80516020615b4483398151915282613b09565b5061431a5f805160206159a483398151915282613b09565b506118ef7f617f090c5c25c03926349842bc8af0f3c3a16c2162ce4991581995a8cb3efd0982613b09565b5f611024614351613bb1565b8360405161190160f01b8152600281019290925260228201526042902090565b5f805f806143818888888861473b565b9250925092506143918282614803565b50909695505050505050565b6143a783836148bb565b611254838383614bc6565b5f805160206159e48339815191526001600160a01b0385166143e95760405163e602df0560e01b81525f6004820152602401610f8b565b6001600160a01b03841661441257604051634a1406b160e11b81525f6004820152602401610f8b565b6001600160a01b038086165f908152600183016020908152604080832093881683529290522083905581156127da57836001600160a01b0316856001600160a01b03167f8c5be1e5ebec7d5bd14f71427d1e84f3dd0314c0f7b2291e5b200ac8c7c3b9258560405161448691815260200190565b60405180910390a35050505050565b6001600160a01b0382166144be5760405163ec442f0560e01b81525f6004820152602401610f8b565b6118ef5f838361439d565b6144d38282612643565b6118ef5760405163e2517d3f60e01b81526001600160a01b038216600482015260248101839052604401610f8b565b5f7f8b73c3c69bb8fe3d512ecc4cf759cc79239f7b179b0ffacaa9a75d522b39400f61452c614bd9565b614534614bee565b60408051602081019490945283019190915260608201524660808201523060a082015260c00160405160208183030381529060405280519060200120905090565b5f80516020615b248339815191525460ff1661370757604051638dfc202b60e01b815260040160405180910390fd5b6145ad82614bf7565b6040516001600160a01b038316907fbc7cd75a20ee27fd9adebab32041f755214dbc6bffa90cc0225b39da2e5c2d3b905f90a28051156145f1576112548282614c5a565b6118ef614cf3565b60405163a9059cbb60e01b5f8181526001600160a01b038616600452602485905291602083604481808b5af1925060015f5114831661464f578383151615614643573d5f823e3d81fd5b5f873b113d1516831692505b60405250949350505050565b614663614d12565b61370757604051631afcd79f60e31b815260040160405180910390fd5b61468861465b565b5f805160206159e48339815191527f52c63247e1f47db19d5ce0460030c497f067ca4cebf71ba98eeadabe20bace036146c184826158cf565b506004810161180d83826158cf565b6146d861465b565b7fa16a46d94261c7517cc8ff89f61c0ce93598e3c849801011dee649a6a557d1007fa16a46d94261c7517cc8ff89f61c0ce93598e3c849801011dee649a6a557d10261472484826158cf565b506003810161180d83826158cf565b6137f861465b565b5f80807f7fffffffffffffffffffffffffffffff5d576e7357a4501ddfe92f46681b20a084111561477457505f915060039050826147f9565b604080515f808252602082018084528a905260ff891692820192909252606081018790526080810186905260019060a0016020604051602081039080840390855afa1580156147c5573d5f803e3d5ffd5b5050604051601f1901519150506001600160a01b0381166147f057505f9250600191508290506147f9565b92505f91508190505b9450945094915050565b5f8260038111156148165761481661598f565b0361481f575050565b60018260038111156148335761483361598f565b036148515760405163f645eedf60e01b815260040160405180910390fd5b60028260038111156148655761486561598f565b036148865760405163fce698f760e01b815260048101829052602401610f8b565b600382600381111561489a5761489a61598f565b036118ef576040516335e2f38360e21b815260048101829052602401610f8b565b603554600160a01b900460ff166148d0575050565b336148da81614d2b565b156148e457505050565b6001600160a01b03831615614953576001600160a01b0383165f9081526036602052604090205460ff16156149535760405162461bcd60e51b81526020600482015260156024820152741155d054924e881cd95b99195c88189b1bd8dad959605a1b6044820152606401610f8b565b6001600160a01b038216156149ca576001600160a01b0382165f9081526036602052604090205460ff16156149ca5760405162461bcd60e51b815260206004820152601860248201527f45574152493a20726563697069656e7420626c6f636b656400000000000000006044820152606401610f8b565b603554600160a81b900460ff1615614ac8576001600160a01b03831615614a52576001600160a01b0383165f9081526037602052604090205460ff16614a525760405162461bcd60e51b815260206004820152601d60248201527f45574152493a2073656e646572206e6f7420616c6c6f776c69737465640000006044820152606401610f8b565b6001600160a01b03821615614ac8576001600160a01b0382165f9081526037602052604090205460ff16614ac85760405162461bcd60e51b815260206004820181905260248201527f45574152493a20726563697069656e74206e6f7420616c6c6f776c69737465646044820152606401610f8b565b603554600160b01b900460ff1615611254576001600160a01b03831615614b50576001600160a01b0383165f9081526038602052604090205460ff16614b505760405162461bcd60e51b815260206004820152601960248201527f45574152493a2073656e646572206b7963206d697373696e67000000000000006044820152606401610f8b565b6001600160a01b03821615611254576001600160a01b0382165f9081526038602052604090205460ff166112545760405162461bcd60e51b815260206004820152601c60248201527f45574152493a20726563697069656e74206b7963206d697373696e67000000006044820152606401610f8b565b614bce6136d7565b611254838383614dda565b5f614be26140a3565b80519060200120905090565b5f614be26140f4565b806001600160a01b03163b5f03614c2c57604051634c9c8ce360e01b81526001600160a01b0382166004820152602401610f8b565b5f80516020615a6483398151915280546001600160a01b0319166001600160a01b0392909216919091179055565b60605f614c678484614f05565b9050808015614c8857505f3d1180614c8857505f846001600160a01b03163b115b15614c9d57614c95614f18565b915050611024565b8015614cc757604051639996b31560e01b81526001600160a01b0385166004820152602401610f8b565b3d15614cda57614cd5614f31565b613baa565b60405163d6bda27560e01b815260040160405180910390fd5b34156137075760405163b398979f60e01b815260040160405180910390fd5b5f614d1b614152565b54600160401b900460ff16919050565b5f6001600160a01b038216158015906110245750614d495f83612643565b80614d665750614d665f80516020615a8483398151915283612643565b80614d835750614d835f80516020615ac483398151915283612643565b80614da05750614da05f805160206159c483398151915283612643565b80614dbd5750614dbd5f80516020615a2483398151915283612643565b8061102457506110245f80516020615a0483398151915283612643565b5f805160206159e48339815191526001600160a01b038416614e145781816002015f828254614e099190615861565b90915550614e849050565b6001600160a01b0384165f9081526020829052604090205482811015614e665760405163391434e360e21b81526001600160a01b03861660048201526024810182905260448101849052606401610f8b565b6001600160a01b0385165f9081526020839052604090209083900390555b6001600160a01b038316614ea2576002810180548390039055614ec0565b6001600160a01b0383165f9081526020829052604090208054830190555b826001600160a01b0316846001600160a01b03167fddf252ad1be2c89b69c2b068fc378daa952ba7f163c4a11628f55a4df523b3ef84604051612ab891815260200190565b5f805f835160208501865af49392505050565b6040513d81523d5f602083013e3d602001810160405290565b6040513d5f823e3d81fd5b6001600160a01b03811681146118a0575f80fd5b80358015158114614f5f575f80fd5b919050565b5f8060408385031215614f75575f80fd5b8235614f8081614f3c565b9150614f8e60208401614f50565b90509250929050565b5f60208284031215614fa7575f80fd5b81356001600160e01b0319811681146111b2575f80fd5b5f60208284031215614fce575f80fd5b81356111b281614f3c565b5f805f60608486031215614feb575f80fd5b8335614ff681614f3c565b9250602084013561500681614f3c565b929592945050506040919091013590565b5f8060408385031215615028575f80fd5b823561503381614f3c565b946020939093013593505050565b5f81518084525f5b8181101561506557602081850181015186830182015201615049565b505f602082860101526020601f19601f83011685010191505092915050565b602081525f6111b26020830184615041565b5f8083601f8401126150a6575f80fd5b50813567ffffffffffffffff8111156150bd575f80fd5b6020830191508360208260051b85010111156150d7575f80fd5b9250929050565b5f805f805f80608087890312156150f3575f80fd5b86356150fe81614f3c565b9550602087013567ffffffffffffffff8082111561511a575f80fd5b6151268a838b01615096565b9097509550604089013591508082111561513e575f80fd5b5061514b89828a01615096565b979a9699509497949695606090950135949350505050565b5f60208284031215615173575f80fd5b5035919050565b5f806040838503121561518b575f80fd5b82359150602083013561519d81614f3c565b809150509250929050565b634e487b7160e01b5f52604160045260245ffd5b5f67ffffffffffffffff808411156151d6576151d66151a8565b604051601f8501601f19908116603f011681019082821181831017156151fe576151fe6151a8565b81604052809350858152868686011115615216575f80fd5b858560208301375f602087830101525050509392505050565b5f8060408385031215615240575f80fd5b823561524b81614f3c565b9150602083013567ffffffffffffffff811115615266575f80fd5b8301601f81018513615276575f80fd5b615285858235602084016151bc565b9150509250929050565b5f805f805f606086880312156152a3575f80fd5b85356152ae81614f3c565b9450602086013567ffffffffffffffff808211156152ca575f80fd5b6152d689838a01615096565b909650945060408801359150808211156152ee575f80fd5b506152fb88828901615096565b969995985093965092949392505050565b5f805f805f60608688031215615320575f80fd5b853567ffffffffffffffff80821115615337575f80fd5b61534389838a01615096565b9097509550602088013591508082111561535b575f80fd5b5061536888828901615096565b96999598509660400135949350505050565b5f805f806080858703121561538d575f80fd5b843561539881614f3c565b935060208501356153a881614f3c565b93969395505050506040820135916060013590565b60ff60f81b881681525f602060e060208401526153dd60e084018a615041565b83810360408501526153ef818a615041565b606085018990526001600160a01b038816608086015260a0850187905284810360c0860152855180825260208088019350909101905f5b8181101561544257835183529284019291840191600101615426565b50909c9b505050505050505050505050565b5f805f805f60a08688031215615468575f80fd5b853561547381614f3c565b9450602086013561548381614f3c565b94979496505050506040830135926060810135926080909101359150565b5f805f604084860312156154b3575f80fd5b833567ffffffffffffffff8111156154c9575f80fd5b6154d586828701615096565b90945092506154e8905060208501614f50565b90509250925092565b5f82601f830112615500575f80fd5b6111b2838335602085016151bc565b5f805f805f805f60e0888a031215615525575f80fd5b873567ffffffffffffffff8082111561553c575f80fd5b6155488b838c016154f1565b985060208a013591508082111561555d575f80fd5b5061556a8a828b016154f1565b965050604088013561557b81614f3c565b9450606088013561558b81614f3c565b9350608088013561559b81614f3c565b9699959850939692959460a0840135945060c09093013592915050565b5f805f606084860312156155ca575f80fd5b6155d384614f50565b92506155e160208501614f50565b91506154e860408501614f50565b5f805f805f805f60e0888a031215615605575f80fd5b873561561081614f3c565b9650602088013561562081614f3c565b95506040880135945060608801359350608088013560ff8116811461559b575f80fd5b5f8060408385031215615654575f80fd5b823561565f81614f3c565b9150602083013561519d81614f3c565b6020808252601390820152721155d054924e881d5b985d5d1a1bdc9a5e9959606a1b604082015260600190565b60208082526013908201527245574152493a206163636f756e74207a65726f60681b604082015260600190565b6020808252600e908201526d45574152493a20746f207a65726f60901b604082015260600190565b60208082526012908201527145574152493a20616d6f756e74207a65726f60701b604082015260600190565b60208082526017908201527f45574152493a206275726e20616d6f756e74207a65726f000000000000000000604082015260600190565b600181811c9082168061576857607f821691505b60208210810361578657634e487b7160e01b5f52602260045260245ffd5b50919050565b634e487b7160e01b5f52603260045260245ffd5b634e487b7160e01b5f52601160045260245ffd5b81810381811115611024576110246157a0565b5f826157e157634e487b7160e01b5f52601260045260245ffd5b500490565b60208082526013908201527245574152493a2072656c61796572207a65726f60681b604082015260600190565b6020808252601b908201527f45574152493a20696e73756666696369656e742062616c616e63650000000000604082015260600190565b8082028115828204841417611024576110246157a0565b80820180821115611024576110246157a0565b5f60208284031215615884575f80fd5b5051919050565b601f82111561125457805f5260205f20601f840160051c810160208510156158b05750805b601f840160051c820191505b818110156127da575f81556001016158bc565b815167ffffffffffffffff8111156158e9576158e96151a8565b6158fd816158f78454615754565b8461588b565b602080601f831160018114615930575f84156159195750858301515b5f19600386901b1c1916600185901b178555615987565b5f85815260208120601f198616915b8281101561595e5788860151825594840194600190910190840161593f565b508582101561597b57878501515f19600388901b60f8161c191681555b505060018460011b0185555b505050505050565b634e487b7160e01b5f52602160045260245ffdfe8502233096d909befbda0999bb8ea2f3a6be3c138b9fbf003752a4c8bce86f6c3c11d16cbaffd01df69ce1c404f6340ee057498f5f00246190ea54220576a84852c63247e1f47db19d5ce0460030c497f067ca4cebf71ba98eeadabe20bace00e2b7fb3b832174769106daebcfd6d1970523240dda11281102db9363b83b0dc452e466598c5e4408cbbaf840ea4dbd39f3e0aa1ba17a69b571858fba5698291f189ab7a9244df0848122154315af71fe140f3db0fe014031783b0946b8c9d2e3360894a13ba1a3210667c828492db98dca3e2076cc3735a920a3ca505d382bbc442a94f1a1fac79af32856af2a64f63648cfa2ef3b98610a5bb7cbec4cee698565d7a28e3265b37a6474929f336521b332c1681b933f6cb9f3376673440d862a9f2df0fed2c77648de5860a4cc508cd0818c85b8b8a1ab4ceeef8d981c8956a67bdb6b596b843035ddd2e81fd6f76604e18d00b7a5869d7d8f70d84e3c9965b402dd7bc7dec4dceedda775e58dd541e08a116c6c53815c0bd028192f7b626800cd5ed15c6e187e77e9aee88184c21f4f2182ab5827cb3b7e07fbedcd63f03300e1dcbdb91df27212a29bc27177c840cf2f819ecf2187432e1fac86c2dd5dfca93f483399a73bbfbc7e47cea702709b2441abfc4e8152100709ca14556e321303a26469706673582212206884f8f68226859fc6406e70734e213afc388244dfac40d7801819b3245c6d2e64736f6c63430008180033",
  "linkReferences": {},
  "deployedLinkReferences": {}
}